S0200000617473616D6C32315F73696D3830307463705F62617369632E7372656337
S1130000182C00202D010000290100002901000006
S113001000000000000000000000000000000000DC
S113002000000000000000000000000029010000A2
S1130030000000000000000029010000897E00008B
S11300402901000029010000290100002901000004
S113005029010000290100002901000029010000F4
S113006029010000290100002901000029010000E4
S1130070B90D000029010000290100002901000038
S113008029010000290100002901000029010000C4
S113009029010000290100002901000029010000B4
S11300A029010000290100002901000029010000A4
S11300B00000000010B5064C2378002B07D1054B37
S11300C0002B02D0044800E000BF0123237010BDC0
S11300D0CC00002000000000F4B60000084B10B56E
S11300E0002B03D00749084800E000BF0748036815
S11300F0002B00D110BD064B002BFBD09847F9E72D
S113010000000000D0000020F4B60000F4B60000A7
S11301100000000010B5024B9847024B984710BDF1
S1130120F1020000697E0000FEE7000010B51A4AE3
S11301301A4B9A4211D01A00194B9A420DD2194AFD
S113014003339B1A9B0801339B0000221348124976
S11301508C58845004329A42FAD1134A134B9A426F
S11301600AD2D34311495B1803218B4304339B18F0
S1130170002102C29342FCD10D4AFF210D4B8B4357
S113018093600D4A53687F390B4353600B4B984778
S11301900B4B9847FEE7C046F4B600000000002071
S11301A0CC00002004000020CC000020140C00200F
S11301B000ED00E00000000000400041298500003F
S11301C03D03000030B50E4B5622995C0125A9432E
S11301D001242143C9B299543B20195C473A914305
S11301E00D3A1143195457215A5CAA432243D2B2FF
S11301F05A541A5C48390A4011310A431A5430BD22
S113020000280040054B4022D4215A5010395A503E
S1130210034AD369BC390B43D361704700180040CB
S11302200004004010B5054B9847002204490548D6
S1130230054B9847054B984710BDC0460502000082
S1130240000C0042B40B002011080000C50100009E
S1130250064B4021D82299500331143A9950044A4C
S1130260D36933390B43D3617047C046001800404B
S11302700004004030B50E4BC822995C0125A94307
S113028001242143C9B29954B420195CB93A914369
S11302900C3A11431954C9215A5CAA432243D2B2DD
S11302A05A541A5CBA390A4021310A431A5430BDEF
S11302B00028004010B582B0074B984700230093F4
S11302C080239B00054A06490648074CA047074B74
S11302D0984702B010BDC04651020000E80000205B
S11302E000100042C00B0020C10500007502000090
S11302F010B50D4B9847C023DB058022D20098210E
S11303005A5010395A50094BA82209499950C02112
S113031009069950CA215A5C012082435A54054B5C
S11303209847054B984710BDF50900000028004088
S11303300004004025020000B502000010B5034B84
S11303409847034B9847034B9847FEE71501000075
S1130350997E00007D380000EFF31083036072B6CD
S1130360BFF35F8F7047BFF35F8F036883F3108819
S11303707047000010B5044B1C68044B98470100FB
S11303802000034B984710BDE8020020CD0900006F
S1130390ED09000070B506000C00150000280DD012
S11303A00800431E9841C0B234220549054B9847C2
S11303B033682A0021003000984770BD0020F3E71D
S11303C00C9700008908000070B506000C001500A9
S11303D000280DD00800431E9841C0B23D220549B3
S11303E0054B984773682A0021003000984770BD78
S11303F00020F3E70C9700008908000010B50838C6
S113040000230363436A002B00D0984710BD10B546
S1130410083800230363C36A002B00D0984710BD3B
S113042010B504002C30044B9847236A083C002B79
S113043001D02000984710BD2D09000070B50400BC
S11304400E00150000281DD000291DD01000431EE9
S113045098413C22FF320F490F4B98474423E25AFC
S11304600833E35A9A4211D1A6644C23E552002280
S1130470083BE252433B236320000830074B984774
S1130480280070BD0020E4E70020E2E71C20404281
S1130490F7E7C0462097000089080000330D0000EC
S11304A070B5040001000839838F4C228A5A9A429D
S11304B00CD00A00896C5D1C44201552C95C2000D4
S11304C0044B98472000044B984770BD034B984752
S11304D0FBE7C046050D0000330D00003B0D000096
S11304E0F0B5CE46474680B585B005000E0017002E
S11304F0002815D0002913D0002A2AD1AC2252009A
S113050029490020294B984703A8294B98472800DC
S11305103430284B984703A8274B984700253CE0E4
S1130520AC22520020490020204B984703A8204BBE
S113053098473435280001951E4B9847804603A8F8
S11305401D4B984700254346002B26D0002F16D17B
S113055023E0AC22520014490120144B984703A80D
S1130560134B9847343528000195124B9847804621
S113057003A8114B984743460025002B0DD00024B7
S11305800E4B9946651CADB231190198C847013428
S1130590444502D2A3B29F42F4D8280005B00CBC53
S11305A090469946F0BDC046209700008908000097
S11305B0590300006D09000067030000E50800000E
S11305C0F8B504000D0016001F00002826D00029ED
S11305D026D0002A26D01800431E98413A221449F6
S11305E0144B9847200034303A003100124B98479E
S11305F0002819D1200008302900104B9847002802
S11306000BD10F4B63600F4B23600F4BA3600F4B59
S1130610E3600F4B23610F4B6361F8BD0020DDE7FE
S11306200020DBE70020D9E70D204042F5E7C04673
S11306302097000089080000910800005D0C00006C
S1130640E10400003D040000A104000021040000B6
S1130650FD0300000F04000010B50400431E984180
S1130660C0B261220449054B984720000830044B6E
S11306709847002010BDC04620970000890800005C
S1130680E90C000070B505000E001400431E9841EB
S1130690C0B283221649174B9847012E11D0002E61
S11306A004D0022E18D00D20404209E0AC62621E34
S11306B09441E2B22800083001210F4B98470020F2
S11306C070BD6C62621E9441E2B2280008300221BF
S11306D0094B98470020F3E7EC62621E9441E2B2B2
S11306E0280008300321044B98470020E8E7C0465F
S11306F02097000089080000450D000010B5040093
S1130700431E9841C0B20222FF320549054B984767
S113071020003430044B9847431E984110BDC04616
S113072020970000890800006D090000F8B5CE4646
S1130730474680B504000F009046002826D00029C3
S113074026D01000431E9841F1221249124B9847BB
S11307500834124D2000A8470028FBD00026104B77
S113076099460E4DB95D2000C8472000A8470028CF
S1130770FBD001364645F5D30A4D2000A847002892
S1130780FBD030000CBC90469946F8BD0020DBE756
S11307900020D9E74097000089080000150D0000EB
S11307A0FD0C00001F0D0000F8B5CE46474680B58D
S11307B004000F00904600281DD000291DD0100011
S11307C0431E9841862252000D490E4B984700263D
S11307D008340D4D0D4B99462000A8470028FBD046
S11307E02000C847B85501364645F5D330000CBC47
S11307F090469946F8BD0020E4E70020E2E7C046B1
S11308004097000089080000290D00000D0D00002C
S113081070B505000C00002813D00800431E984151
S1130820C0B234220849094B9847280008302100F7
S1130830074B9847002803D1064B6B60064B2B608F
S113084070BD0020EDE7C046409700008908000015
S1130850310C0000A90700002D07000010B50400AA
S1130860431E9841C0B253220449054B98472000C7
S11308700830044B9847002010BDC0464097000044
S113088089080000D50C0000002800D100BE704784
S113089070B504000E00150000280BD0002918D0F4
S11308A00120002A07D128220C4900200C4B98472C
S11308B06B1E07E0002028220849094B98476B1E4D
S11308C02B4208D163600023A360E360266000200C
S11308D070BD0020EFE70D204042F9E75C9700006F
S11308E08908000070B504000D00002815D0080028
S11308F0431E9841C0B240220A490B4B9847A36853
S1130900E2689A420BD0626813402268D35C2B7071
S1130910A3680133A360002070BD0020EBE70A2028
S11309204042F9E75C9700008908000070B50400B4
S11309300D00431E9841C0B251220A490A4B984700
S11309406368E26813402268D554E3686168A2686A
S11309509A1A8A4201D9591AA1600133E36000202E
S113096070BDC0465C9700008908000010B5040003
S1130970431E9841C0B267220349044B9847E0687C
S1130980A368C01A10BDC0465C9700008908000027
S11309900300064A1268002A04D0044A1068C318E7
S11309A0136070470249014A1160F6E7EC02002027
S11309B0182C002001204042704780239B014B608B
S11309C000207047012070470020704710B50300D5
S11309D0C8204000584302300321034B98470300CA
S11309E08000C018400010BDF97E00000139FDD818
S11309F07047000010B5094B5A685A600220084B32
S1130A009847084B9847084B9847084B9847084B1A
S1130A109847FF20074B984710BDC046004000414F
S1130A20C30A0000710A0000890A00005D0A000080
S1130A30C10A0000390A0000C30707D5044A054B60
S1130A401A621900044A4B681342FCD17047C0462D
S1130A500601010000180040FD070000034B0822B6
S1130A609A71043A5A71033A1A71704700040040AB
S1130A70044BDA69F82149010A40DA6101221A615A
S1130A807047C0460010004082220C4B1A751800B3
S1130A903821803A435C1342FCD108491022CB68C8
S1130AA01A42FCD0054A137D80210B4313751000B4
S1130AB048390E22435C1342FCD17047000C0040BD
S1130AC070478023DB059B780322134098420CD0A7
S1130AD08022D205FF239371937803218B4308402E
S1130AE0184390709379002BFCD07047054A052376
S1130AF0904204D0BE231B069C466044830A0833FC
S1130B00D8B270470004004310B50400434B984228
S1130B1005D083031B0E032B53D0042B53D0404A20
S1130B2040490020404B98470020E369DB0721D46B
S1130B3083001B189B003D4AD318D9691C23194014
S1130B400322E3691A42FCD123689B070BD523686F
S1130B500222934323600323E2691342FCD102235C
S1130B60E2691342FCD101230B4323600322E369AE
S1130B701A42FCD10122E3691A42FCD1010083002C
S1130B801B189B00294AD318D86920600322E36903
S1130B901A42FCD18B005B189B00244AD3181B6AB1
S1130BA063600722E3691A42FCD1C023DB011842C7
S1130BB00BD18B005B189B001C4AD3189B8CA38120
S1130BC01AE00020B1E70120AFE78A005218930031
S1130BD0164AD218908CA389C004C00C5B0B5B032B
S1130BE00343A3812632137807221A40A3895203B0
S1130BF0DB04DB0C1343A3810C4A880043189B00DD
S1130C00D31827331B78A37341188900521828324C
S1130C1012783023E254002010BDC0460004004383
S1130C2061020000C097000089080000809700005E
S1130C3070B505000C00431E9841C0B2B6220449A9
S1130C40044B98472C602000034B984770BDC04666
S1130C50C097000089080000090B000070B5060069
S1130C600C00431E9841C0B2C4221349134B984749
S1130C702000134B9847051E01D0280070BDB461B5
S1130C80104B9C4214D020000F4B98470306F4D419
S1130C901F2318401E3B83400C4A80215350BFF34E
S1130CA04F8FBFF36F8F0131FF3153501360E4E76F
S1130CB0074B1E60E7E7C046C097000089080000A4
S1130CC0090B000000100042ED0A000000E100E002
S1130CD0F00200200268136802210B431360013103
S1130CE0D3691942FCD170478269136802210B430E
S1130CF013600131D3691942FCD17047036889B28A
S1130D0019857047836989B2198570470368188DFE
S1130D10C0B270470368187E012318407047036807
S1130D20187E8007C00F70470368187E4007C00F05
S1130D307047836901229A757047836902229A7504
S1130D407047000070B504000D001600431E984162
S1130D50C0B2164A1649174B984702232A009A43F1
S1130D600ED1A369002E05D101221A75A36901329F
S1130D701A7570BD01229A75A36901329A75F8E754
S1130D80012D07D0032DF4D1A369002E0BD08022AE
S1130D909A75EEE7A369002E02D104221A75E8E7DA
S1130DA004229A75E5E780221A75E2E72102000021
S1130DB0C09700008908000010B5194B18688469B1
S1130DC0237EDB0702D5A37DDB070FD4237E9B079D
S1130DD002D5A37D9B070ED4237E5B0715D5628BBA
S1130DE037231A420CD00833638310BD01232375C3
S1130DF003689847F9E70223237583689847F4E763
S1130E00218DC9B243689847EFE7237EDB09ECD014
S1130E1080232376C3689847638B9BB26383E4E79C
S1130E20F002002010B5054B9847002803DB044B63
S1130E309847C01710BD01204042FBE7251700006A
S1130E403D12000010B5014B984710BD351100004C
S1130E508368C268934207D004D3406810180130F5
S1130E60C01A7047D01AFCE70020FAE770B50400F6
S1130E700D00160000281ED000291FD0114B9847E2
S1130E806368834211D0E368980023689C466044F9
S1130E90320029000C4B9847E368581C6368591CBE
S1130EA00A4B9847E160002070BD0948094B9847F8
S1130EB001204042F8E701204042F5E7012040428A
S1130EC0F2E7C046510E0000B7850000058000001F
S1130ED0DC970000357D000070B504000D001E0095
S1130EE00023336000281ED000291FD0124B9847DE
S1130EF000281ED0A368990023689C4661440422FC
S1130F0028000E4B9847A3689B00002221685A5082
S1130F1004233360A368581C6368591C084B984722
S1130F20A160002070BD01204042FBE70120404247
S1130F30F8E701204042F5E7510E0000B7850000B4
S1130F400580000070B506000C0000281BD00029A5
S1130F5016DD10200D4B9847051E11D010220021DC
S1130F600B4B98476C60601C8000084B98472860C6
S1130F70002802D03560002070BD2800054B98473A
S1130F8001204042F8E701204042F5E71D7D0000C2
S1130F90C98500005D7C0000F8B5002830D00468E5
S1130FA0002C2DD02368002B27D0A368E26893423D
S1130FB01CD0144D144E154F09E0A368581C6368E7
S1130FC0591C134B9847A160E36899420ED028003E
S1130FD0B047A3689B00226898580028EDD0B84712
S1130FE0A3689B00002221685A50E6E70025E560CB
S1130FF0A5602068054B984725602000034B98475F
S1131000F8BDC046EC970000357D00005D7C000013
S11310100580000000B583B001910068042201A995
S1131020034B9847431E9841404203B000BDC0465D
S11310306D0E0000002804D00068431E9841C0B221
S113104070470020FCE70000F0B5C64600B582B04A
S113105004000D001600002825D0164B9847804642
S1131060002E10D101267642134F01AB3200290025
S11310702068B8470028F8D10E4B98474346C01A59
S113108013D1013011E0206801AB320029000A4C71
S1131090A047002802D00120404206E0054B9847B3
S11310A04346C01A01E00120404202B004BC90460D
S11310B0F0BDC046957D0000D90E000010B582B089
S11310C0002809D0006801AB0022054CA047431E4C
S11310D09841404202B010BD01204042FAE7C046A8
S11310E0D90E000010B5002805D00068034B9847BE
S11310F04342584110BD01204042FBE7510E00001D
S1131100002801D0002303607047000002280AD899
S113111007492C231A0042438A1843435B5801337E
S113112003D0100070470022FBE70022F9E7C04615
S1131130F4020020F0B5CE4600B582B0002854D0A9
S1131140046847688568C668038A9946002F4FD0AB
S1131150002D50D0002E04D03000304B984710287A
S11311604CD820002E4B984700284AD00368002B07
S11311704ADB203001902B4B9847002847D0182099
S1131180294B9847041E45D018220021274B984725
S11311902800254B98472060002818D02A003900E1
S11311A0234B9847A5804B46E380002E05D02000B2
S11311B00830102231001E4B9847210001981D4B26
S11311C09847002809D102B004BC9146F0BD200024
S11311D0194B984701204042F5E72068164DA8476F
S11311E02000A84701204042EDE701204042EAE701
S11311F001204042E7E701204042E4E70120404269
S1131200E1E701204042DEE701204042DBE7012024
S11312104042D8E701204042D5E7C046918900000A
S11312200D110000351000001D7D0000C98500006F
S1131230B7850000151000005D7C000010B5114B4F
S11312405B680020002B12D10F4B012252421A601E
S1131250DA629A650D4B98470A4B986000280ED0C5
S11312600B4B9847002803D10122064B5A6010BD4E
S1131270044B9868074B984701204042F7E7012048
S11312804042F4E774030020F4020020297D0000AA
S11312904D2700002D7D000070B504000D000028CE
S11312A00FD0002910D00B4B984780235B00984245
S11312B00DDC29002000084B9847431E984140420A
S11312C070BD01204042FBE701204042F8E70120C5
S11312D04042F5E791890000092C000010B5040094
S11312E0012847D12E4B98682E4B98472E4B1B68EC
S11312F0013342D02C4BDB6A01330BD02A4B9B6D5C
S1131300013306D0264B9868284B98470124644241
S113131027E001342C2060432030234B1818082187
S1131320234B98470028EDD11F482C226243831891
S1131330002119715971996199831450FA2292000C
S11313405A629A62631CDDD020001A4B9847002829
S113135009D00123037100234371114B9868134B87
S11313609847200010BD0E4B9868104B98470124F5
S11313706442F6E701246442F3E708210A48203076
S11313800B4B9847041EBDD1074B00221A715A71AA
S11313909A619A831A60FA2292005A629A62D3E797
S11313A0740300202F7D0000F4020020317D000032
S11313B0450F00000D110000F0B587B005000E00C8
S11313C01700182200216846274B9847274B986836
S11313D0274B98472800274B9847041E24D043796D
S11313E0002B28D10095039701235B4204930296B6
S11313F0002E27D02379012B2ED16A46137168461B
S11314001D4B9847051E20D1200008301022029958
S11314101A4B9847E78003236371144B9868184B61
S11314209847280007B0F0BD104B9868144B9847B4
S113143001256D42F5E70D4B9868114B984701253E
S11314406D42EEE70F4B0293D4E7084B98680C4BC0
S1131450984701256D42E4E7044B9868084B984788
S113146001256D42DDE7C046C985000074030020F4
S11314702F7D00000D110000A52E0000B78500008F
S1131480317D00001098000070B582B00400294B33
S11314909847061E4AD04379032B2FD0264B9868D1
S11314A0264B9847B469002C09D02068002803D043
S11314B0234B984700232360B069214B98470023AE
S11314C0B361B3833400203420001E4B98470028B6
S11314D020D01D4D01A92000A847431C14D0019B16
S11314E0002BF7D01868002804D0154B9847002229
S11314F0019B1A600198124B9847EBE7012149427E
S11315002000124B9847C9E72000114B9847200050
S1131510104B9847002333717371013B3360064BC2
S113152098680D4B9847002002B070BD01204042DE
S1131530FAE7C0460D110000740300202F7D00005F
S11315405D7C000035100000BD1000002D3100004E
S1131550990F000001110000317D000010B50D4B02
S11315609847002810D000238269002A01D018006F
S113157010BD20300400084B9847002807D02000F5
S1131580064B98470300F2E701235B42EFE7012390
S11315905B42ECE70D11000035100000E51000007F
S11315A070B582B006000D001400002920D0531E2F
S11315B0154A93421FD8154B984700281ED003792B
S11315C0012B0FD0436A019301235B420093002354
S11315D02200290030000E4DA847002811D1200018
S11315E002B070BD4379002BECD101204042F7E7F3
S11315F001204042F4E701204042F1E7012040424B
S1131600EEE701204042EBE7E70500000D11000082
S113161041320000F0B5DE4657464E464546E0B539
S113162083B08A46170000295AD0002A5CD0384B70
S11316309847061E5CD0002399462AE001953400A1
S113164020342000334B984700280ED0B26A01A9F9
S11316502000314B9847431C07D0019D002D04D036
S11316602B68002B01D0B56116E04B46002B46DCFD
S113167001235B42994642E0012398460023B3616B
S1131680B3832868254CA0472800A0474346002B75
S113169035D1B569002DD1D0AC88B18B641AA4B210
S11316A0A346A74201D8BBB29B46504648442B6888
S11316B09C4661445A461A4B9847D9443379012BC6
S11316C0DAD15F4518D35B46FF1A7B427B41DBB21C
S11316D09846A345D2D2B561B38B5B44B383D5E7B7
S11316E001235B4299460AE001235B42994606E0E6
S11316F001235B42994602E001235B429946484636
S113170003B03CBC90469946A246AB46F0BDC046E9
S11317100D11000035100000491000005D7C000030
S1131720B785000010B53D4B1B78012B6AD0C4224D
S113173000213A4804303A4B98473A48012248235A
S1131740C254E1235B02C3640300483302321A72B9
S113175000225A729A72DA7202321A731800324BE9
S11317609847002851D12D4C2E4B483363602000FC
S11317702C308C2200212A4B98472C4BA3602C4BF5
S1131780E3602C4B23612C4B63610223E36102333E
S1131790236203336362294BA3610123A362284BB1
S11317A09847BC23E050002832D0254B9847C423E7
S11317B01A4AD050444244416442002C0BD1204B7D
S11317C09847C023154AD05000280DD00122134B4E
S11317D01A70200010BD083BD05800281BD0194BAC
S11317E0984701246442F4E7043BD058002801D010
S11317F0144B9847C423094AD0580028E6D0114B0B
S11318009847E3E701246442E3E701246442E0E704
S113181001246442DDE701246442DAE78003002006
S1131820C9850000000400205D7B0000B80B0000A7
S1131830B49C000088A000001898000020980000C4
S1131840297D00002D7D000070B5254CA5440500C0
S11318500C00160080229200002102A8214B984718
S1131860214B1B78002B31D0002D32D0002C33DDDE
S1131870C0231D4AD0581D4B98472900002E11D172
S1131880194A936850682200194CA047041E15D1C8
S1131890C023154AD058174B9847200082239B0039
S11318A09D4470BD144B00932B00144A8021890081
S11318B002A8134DA847013402A9E1E7C0230A4A4C
S11318C0D0580C4B984701246442E6E70124644253
S11318D0E3E701246442E0E701246442DDE7C04613
S11318E0F8FDFFFFC9850000800300202F7D000064
S11318F03D7C0000317D0000209800002498000009
S1131900757D0000F0B5CE46474680B585B007002A
S11319100D001D4B1B78002B2BD0BC231A4AD0582A
S11319201A4B98470024A946174E194B9846AC42C7
S113193014D22A1B39197068B368009303ABC047EB
S1131940002819D1039B002BF1D0E418A145EED84F
S1131950BC230D4AD0580F4B984704E0BC230A4AD5
S1131960D0580C4B9847200005B00CBC90469946C3
S1131970F0BD01204042F7E7BC23034AD058054B91
S1131980984701204042EFE7800300202F7D0000AC
S11319909D7B0000317D0000F0B5DE46574680B5E2
S11319A083B000908B4692460193002A4BDB0028BB
S11319B04CD0B8232B4AD758042F4ADC002F0EDD15
S11319C014000434FD00ED1BAD006519264EA16A18
S11319D00098B04700283FD01C34AC42F7D12149CD
S11319E07B1CB8228B50FB00DB1B9B00CB18002216
S11319F05A635B46002B0ED050461C4B9847FB00A5
S1131A00DB1B9B00174AD3185863002827D0524683
S1131A100021174B98471349FA00D31B9B00CB189E
S1131A205046D8630098D8625846186301981864E1
S1131A300A9858641A0000239363002003B00CBC76
S1131A4092469B46F0BD01204042F7E70120404208
S1131A50F4E701204042F1E701204042EEE7012093
S1131A604042EBE7800300206D8900001D7D0000EB
S1131A70C9850000F0B5DE4657464E464546E0B5FA
S1131A808FB00590069193460793CC4B1B78002B9F
S1131A9000D12BE1002802D0002900DC29E18022BA
S1131AA092000021C6485C30C64B984700270023AB
S1131AB00B930893C24B5C330993C14B5C330A9379
S1131AC0C9E001230893C6E0206CE36B00220021E7
S1131AD098474A460021BA485C30BA4B9847049B61
S1131AE099461EE03A004146206CE36B9847626BCE
S1131AF00021206BB34FB847002363634A4600219B
S1131B00AF485C30B8470AE00021206BAD4B9847E2
S1131B10002363634A4600210998AA4B9847049B13
S1131B20994601361C35B823A44AD3589E422DDA6F
S1131B302C006B6B002B00D0EAE0AB6A0393180017
S1131B40A14B984707004845EBD84A46131A9C49CD
S1131B505C31C918020003989C4B98470028E0D1D7
S1131B60EB6A002BB0D0013FA26B0021206B954B98
S1131B709847FB43DB171F403A00A16A206B944B44
S1131B809847636B9C4667446763C5E04F46059B73
S1131B90002B60D0069B002B5DDD5B46002B00D143
S1131BA0EAE01D68002D00D1F7E02800864B984735
S1131BB004005B465B689946002B00D1F7E0484679
S1131BC0814B984703905B469E68002E00D1DFE06E
S1131BD030007D4B98478046A74239DB089B002B99
S1131BE009D13B1B76485C30C01822002900794B90
S1131BF0984700282FD10B9A130006998A4268DA75
S1131C00059C5246E25401330B930398010083422E
S1131C1008DB181AA44660440A0049466D4B9847ED
S1131C2000286ED00B9A1300904500DD49E7424628
S1131C30981A059B9C4660443100664B98470028DF
S1131C405FD00123089306E01700A0E717009EE782
S1131C50089B012BCFD000230D93584B1B78002BEE
S1131C604DD0564CBC2560595B4B98476068079B28
S1131C7000930DAB01220B210AAEB4466144574ECA
S1131C80B047060004906059554B9847002E36D152
S1131C900D9B012B33D10A330AAA944663441B7863
S1131CA09A467A1C4F4B9A4226DC454BDF195C3727
S1131CB0514639709B185C3300211970002AC3DB2C
S1131CC0B8233E49CB58002BC0DD0D0004359146A6
S1131CD02EE7069A0021059C20003A4B98473100D4
S1131CE02000414B9847012040420AE00120404235
S1131CF007E00120404204E00120404201E00120CD
S1131D0040420FB03CBC90469946A246AB46F0BD5B
S1131D10EB6A002B00D1D7E6626BA36B9A4200D327
S1131D20F2E6236B51469954636B5F1C6763A06AA8
S1131D30254B98478046E36A03931800224A90474C
S1131D400200404683189F4209D3206B8046B81A8C
S1131D50404403991F4B9847002800D1C2E6FF2353
S1131D605B00994500DCDCE64A4600210A98154BE5
S1131D709847049B9946D4E6104BDD68DC690F4B09
S1131D801A6991461B6A03935B46002B00D01AE73D
S1131D900A4B5E695B6A98461EE7084BDD68DC699E
S1131DA05B465B689946002B00D008E7E7E7034BE6
S1131DB01A6991461B6A039305E7C0468003002015
S1131DC000040020C9850000918900009985000065
S1131DD0B78500009F8900002F7D00009D7B0000D7
S1131DE0317D0000FF0100008189000010B51C0056
S1131DF0124B984700281DDB002C02D0029B002BBD
S1131E000BD164200E4B98470E4B9B68059A04999E
S1131E1003980D4CA047C01710BD3220084B9847BB
S1131E20002202992000054B98470028E9DA012096
S1131E304042F1E701204042EEE7C0464918000065
S1131E40657D000080030020751A000030B585B060
S1131E5004000D000A0001001D481E4B9847322063
S1131E601D4B9847694620001C4B9847002809D011
S1131E702B00220001001A48164CA04701204042C2
S1131E8005B030BD0120174B9847041E0DDB2A0016
S1131E906946154B984700280DD1631C11D02100C9
S1131EA012480C4B98472000EAE71148094B984721
S1131EB001204042E4E720000E4B98470E48054BB2
S1131EC098470E48034B984701246442EBE7C04609
S1131ED02C980000357D0000657D000099120000FB
S1131EE068980000DD120000B9130000DC980000BF
S1131EF09C98000089140000B4980000C498000065
S1131F0010B5054B9847002800D110BD0348044B79
S1131F10984701204042F8E7891400000099000026
S1131F20357D0000F0B5CE46474680B583B00190BC
S1131F30884614001D00164B98472E0000273618BB
S1131F404F410025134B9946621B4346591901988A
S1131F50C84700280FDD2D18A54206D20C4B984720
S1131F608F42F1D801D18642EED8280003B00CBCD0
S1131F7090469946F0BD002803D10748074B98477F
S1131F80EAE701000648054B984701204042EDE787
S1131F90957D0000A115000014990000357D000016
S1131FA028990000F0B5DE4657464E464546E0B552
S1131FB085B003908A4693461C002E4B9847260012
S1131FC0002736184F41002301932A4B99462A4D86
S1131FD038E08F4201D1864237D8002413E00A202A
S1131FE0264B98472000C047002818D0244B0022D5
S1131FF000210020A8471F4B98478F42EFD801D1FA
S11320008642ECD800242000019B002B00D018004D
S113201005B03CBC90469946A246AB46F0BD0400D0
S11320205A46019BD21A9C46D44461460298154BE9
S1132030984700280FDD01998C4684446346019338
S1132040E345E0D9C8478F42C3D9039B02930E4AA4
S113205090461C00C6E7002805D10C480C4B984755
S113206001246442CFE70B48094B98470224644299
S1132070C9E7C046957D0000751A0000657D000023
S1132080B80B0000151600005D150000489900000B
S1132090357D000060990000F0B599B04022002120
S11320A008A83C4B9847002305933B4A06920793A4
S11320B000240025394F013403954023029308AED0
S11320C0019600952B00012207213548B847354970
S11320D03000354B9847002812D13230334B9847A3
S11320E0332C52D0EE235B000193314B0093230039
S11320F008AA2B492F48304EB0472748B047DAE7A3
S113210008AC402200212000224B9847002303936F
S113211040220292019400933F3A082127481F4D20
S1132120A84720492000204B9847002823D008AC1A
S1132130402200212000174B984705AB039340230E
S11321400293019400230093012208211C48134D9B
S1132150A8471C492000144B9847002818D008AB06
S1132160F822520012491848134CA0470A48A047C5
S1132170002019B0F0BD08ABE822FF320C49124828
S11321800D4CA0470448A047D1E701204042F0E7A6
S11321900020EEE7C9850000B49C0000ED1D00009E
S11321A0B49A0000BC9A0000EB890000657D000031
S11321B06C990000C09A0000357D0000E89A000088
S11321C00C9B0000189B0000F49A0000F0B5C64672
S11321D000B590B0372402AB9C46644400232370BE
S11321E0362262441370062200210EA8754DA847BA
S11321F0102200210AA8A8470622002108A8A847FF
S113220001212000704B98472678303E052E16D8C1
S11322100121362002AB9C4660446B4B9847002456
S11322200EAD694F28190121B847635D2C2B0DD0E1
S1132230062C20D0303B092B27D80134F2E731009B
S11322406248634CA0476348A0471AE00027002C6B
S11322500CDD002700210EAABB00DB195B00885CA3
S11322601B18303B1F0001318C42F5D10AAC00250C
S1132270554B984619E00EA95748554CA047554868
S1132280A04710B004BC9046F0BD0EA95348504C72
S1132290A0475048A047F4E70AA951484C4CA0472E
S11322A04C48A047EDE70135013401212000C04727
S11322B023783A2B0ED0102DEED01A00303A092A8A
S11322C0F1D92E2BEFD00AA94648414CA0474148EA
S11322D0A047D6E700220AAB5A55002408AD3A4B72
S11322E0984628190121C047635D0D2B14D0062C94
S11322F004D0303B092B08D80134F2E708A93A4846
S1132300334CA0473348A047BBE708A93748304CB3
S1132310A0473048A047B4E7002208AB1A55012172
S1132320362002AB9C466044274B9847002C31DD95
S11323300025002108AAAB005B195B00885C1B1810
S1132340303B1D0001318C42F5D17B1C01931800F8
S1132350274B9847041E1FD0019A0021194B984718
S113236039002000184B984773009B199B00214AA1
S11323709B58002B0ADB03A80393446087600AABD5
S1132380C36005821C4B984700280ED120001B4BCC
S1132390984776E70025D8E7EC2219491431194803
S11323A00B4CA0470B48A0476BE70C235E433B0054
S11323B0104AB258124914311348054DA84705482C
S11323C0A847E3E7C985000005190000209B000029
S11323D0357D0000B49C0000409B00006C9B000015
S11323E0949B0000C09B0000EC9B00001C9C000020
S11323F01D7D00005C060020450E00005D7C000091
S11324006C990000449C0000609C000010B50029F9
S113241001D0002A07D108493C310848084CA0479C
S11324200848A04710BD08484830084B9847012287
S1132430074B9A64F6E7C0466C990000A09C000024
S1132440357D0000B49C00005C060020B7850000C8
S11324505C080020F0B5A7B04022002116A8654C06
S1132460A0474022002106A8A0470024624F634BE6
S11324705C3305930134002303934022029206AD9A
S1132480019500933F3A0A2138005D4EB0475D49FB
S113249028005D4B9847002810D132305B4B984799
S11324A0332C00D1A3E0009406ABD122520005994D
S11324B05748584DA8475848A847DBE706AC402280
S11324C0002120004B4B984701230093534B544A5F
S11324D03F2116A8534DA84716A8534B984701000F
S11324E00023039340220292019400933F3A16A8DA
S11324F0434DA84743492000434B984700284FD0F9
S113250006AC4022002120003A4DA8474022002179
S113251016A8A84700250095444B414A3F2116A818
S1132520404EB04716A8404B9847010003954023FE
S11325300293019400950023012216A8304DA84768
S113254030492000304B9847002836D006AC402252
S113255000212000274DA8474022002116A8A847A3
S113256001230093324B2E4A3F2116A82D4DA84734
S113257016A82D4B98470100002303934022029292
S1132580019400933F3A16A81D4DA8471D49200009
S11325901D4B9847002300281CD0180027B0F0BD1D
S11325A006ABD722520015495C312248194CA0478A
S11325B01948A04701235B42EFE706ABBA22FF327A
S11325C00E495C311B48134CA0471348A047012314
S11325D05B42E2E706ABC422FF3208495C3115488E
S11325E00C4CA0470C48A04701235B42D5E70123CC
S11325F05B42D2E7C9850000B89C00006C990000DA
S1132600ED1D0000BC9A0000EB890000657D000010
S1132610C49C0000357D0000B49C0000EC9C0000CC
S1132620F89C0000757D000091890000009D000069
S11326300C9D0000F49A000070B505000C4BD86C9A
S11326400C4B98470C4B1B689D420ED00A4B01243F
S1132650DA68AA4203D001340C33062CF8D1044BB7
S1132660D86C064B9847200070BD0024F7E7C0469D
S11326705C0800202F7D00005C060020317D0000F6
S1132680F0B599B0040005900D00069117004022A2
S1132690002108A8224B9847002C2FD0002D2DD0C4
S11326A00024002F2AD01F4F1F4B7033079301348F
S11326B0059D2800B847010000230393402202929D
S11326C008AE019600933F3A2800184DA847069D8E
S11326D029003000164B984700281AD13230154B88
S11326E09847332C18D000942B001C22FF320799F2
S11326F01148124EB0471248B047D8E70E22FF32B5
S1132700104911480D4CA0470D48A04701204042F4
S113271000E0002019B0F0BD01204042FAE7C046B5
S1132720C9850000918900006C990000ED1D00002E
S1132730EB890000657D0000C49C0000357D00002D
S1132740B49C0000189D0000309D0000F0B5A7B0B7
S11327505023E14AD35C002B00D0D2E080229200C7
S11327600021DE484830DE4B9847DE4B9847DA4B71
S1132770D864002800D1CBE0DA4B9847D64B586593
S1132780002800D1CEE0D54C482200212000D44DB1
S1132790A84701235B422360E360A3616362236370
S11327A0E3634022002106A8A8474022002116A87E
S11327B0A8470422CC49CD48CD4B9847041E00D0ED
S11327C0B9E0002303934022029216AD01950093D1
S11327D03F3A0421C748C84EB047C8492800C84BEF
S11327E09847002800D1C5E0E1235B020093C54B64
S11327F0C54A3F2106A8C54DA84706A8C44B98471B
S11328000100002303934022029216AD0195009328
S11328103F3A06A8B84EB047B8492800B84B984785
S1132820002800D1B1E04022002106A8AC4DA84701
S113283016AE402200213000A847002501950095DE
S1132840B44BB54A3F2106A8B04FB84706A8B04BD1
S113285098470100039540230293019600950023B5
S1132860012206A8A44DA847A4493000A44B9847C8
S1132870002800D194E016AD402200212800984B96
S113288098470023039340220292019500933F3A14
S11328900421A248984EB04798492800984B98477D
S11328A0002800D187E04022002116A88C4B9847CD
S11328B09B4F9C4B343305930134002303934022F4
S11328C0029216AD019500933F3A082138008A4ED2
S11328D0B0478A4928008A4B9847002800D075E001
S11328E03230914B9847332C00D1E0E0009416AB82
S11328F0B422520005998D488D4DA8478D48A847AC
S1132900DAE78D488A4CA0478A48A04700202FE088
S11329108422920083490C318848854CA04785481D
S1132920A04716E0864A7F490C318448804CA04772
S11329308048A0470DE083487D4CA0477D48A047D0
S11329408A22920077490C317F48794CA047794814
S1132950A047614BD86C002801D07C4B98475E4B54
S1132960586D002800D131E1784B9847012040424E
S113297027B0F0BD16AB3622FF326A4920317448C5
S11329806B4CA0476B48A047DAE716AB3E22FF32F8
S1132990644920316E48664CA0476648A047CFE79B
S11329A016AB4822FF325F4920316948604CA0478A
S11329B06048A047C4E716ABA82252005949203109
S11329C063485B4CA0475B48A047B9E716AC40227C
S11329D000212000424B9847002303934022029297
S11329E0019400933F3A06215A48434DA84743496E
S11329F02000434B984700284FD016AC210056487E
S1132A004B4DA8474B48A847402200212000344B97
S1132A1098470023039340220292019400933F3A83
S1132A2008214E48344DA84734492000344B984778
S1132A30002845D016AC210049483D4DA8473D48E3
S1132A40A847402200212000254B984700230393E8
S1132A5040220292019400933F3A09214148264DB5
S1132A60A84726492000264B9847002800D181E03A
S1132A7016A93D482E4CA0472E48A0473B4B9847EB
S1132A80002800D181E08D22920026490C312E4885
S1132A90274CA0472748A0475BE716AB7422FF32B8
S1132AA0204934312A48224CA0472248A047304AC2
S1132AB01C490C3124481E4CA0471E48A04748E737
S1132AC016AB7E22FF32174934312148184CA047F7
S1132AD01848A047EBE7C0465C0800205C060020CD
S1132AE0C9850000297D000088A00000989D000091
S1132AF081260000C09D0000ED1D0000BC9A00006E
S1132B00EB890000C89D0000F89C0000757D000062
S1132B1091890000D09D0000D89D0000E49D000034
S1132B20EC9D0000EC990000657D0000C49C000051
S1132B30357D0000B49C0000489D0000749D000099
S1132B40150200009C9D0000689E00002D7D000081
S1132B50F49A0000F89D0000009E0000189E0000FA
S1132B60249E0000449E0000509E00005524000056
S1132B702E02000016ABC422520016493431164806
S1132B80164CA0471648A04791E700250095154B21
S1132B908022920012491448144CA0470095144B0B
S1132BA0002200211348A047134B9847002804D162
S1132BB001215023114AD154DAE6114A05490C3156
S1132BC01048064CA0470648A047C2E601204042F0
S1132BD0CEE6C046EC990000F49A0000357D000072
S1132BE0B49C00000D240000789E00009919000098
S1132BF0CD210000889E0000992000005C08002080
S1132C003E020000689E0000F0B5DE46474680B5EF
S1132C10ADB005908B46402200211CA8814B9847FB
S1132C205023814AD35C002B2CD0059B002B33D03E
S1132C305B46002B30D005987C4B984780235B0083
S1132C40984233D8784C250058358622520000210A
S1132C502800744B9847059B0093754B754A0C21CB
S1132C60FF312800744DA847606D744B98476E4D32
S1132C70583506956D4D724B50339846714B483319
S1132C8007935CE06E4950316F48704CA047704820
S1132C90A04701204042C0E0694950316D486B4C67
S1132CA0A0476B48A04701204042B6E06449503138
S1132CB06948664CA0476648A04701204042ACE002
S1132CC01CAB664A41466648604CA0476048A04732
S1132CD07AE0A72292005B49483162485B4CA047E6
S1132CE05B48A04770E0604A21006048574CA04709
S1132CF05748A04768E007000200210058465C4B93
S1132D00984700235A46D3558022920000214D480B
S1132D104830444B9847444B586D564B98470020D5
S1132D207BE00CABFE22FF32454968314C48474CEE
S1132D30A0474748A047504B9847504B9847069E9A
S1132D403000A847010000230393402202921CACE8
S1132D50019400933F3A3000494EB047494920005E
S1132D60494B98470028ABD02F4B9B6C002B0CD1C0
S1132D70464E474F2C4C6423002200210020B047CC
S1132D803220B847A36C002BF5D00022264B9A645E
S1132D90059907983C4B9847041E9AD00598234BF5
S1132DA0984703302418222120003A4B98470028E2
S1132DB099D0001BC31F082B9DD9374A21002B48EB
S1132DC0224CA0472248A0470CAC402200212000FE
S1132DD0144B984709AA002309931D490A910B93A0
S1132DE0039240220292019400933F3A08212B4817
S1132DF0234FB8472A492000234B9847002890D1F5
S1132E008022920000210F484830064B9847064B19
S1132E10586D184B9847012040422DB00CBC904689
S1132E209B46F0BDC98500005C0800209189000024
S1132E30E09E0000EC9E0000757D00002F7D0000E8
S1132E40EC9900005C060020949E0000357D000093
S1132E50B49C0000A09C0000C09E000086020000FC
S1132E60F49A0000F49E0000A2020000149F0000E7
S1132E70B7850000317D0000552400009920000032
S1132E80ED1D0000BC9A0000EB890000751A0000DB
S1132E90657D000051890000A70200000C9B000022
S1132EA0189B000070B598B005004022002108A8C6
S1132EB0854B984705AA854B13CB13C25023844AEC
S1132EC0D35C002B24D0002D2CD0AB68002B29D050
S1132ED07F4BD86C7F4B98477F4B1B68002B00DAE5
S1132EE0E8E07D4B0124DA68002A27DB01340C3347
S1132EF0062CF8D1764BD86C784B984773490C3133
S1132F007748784CA0477848A04701256D4243E0B4
S1132F106E490C317548734CA0477348A04701258E
S1132F206D4239E0B322920068490C3170486D4C0F
S1132F30A0476D48A04701256D422DE063001B1991
S1132F409B00654A29689950614BD86C634B98473C
S1132F50052CD3DCA022520000215D4858305A4B86
S1132F6098472979012948D0002918D0042900D18B
S1132F7071E060485B4DA8475B48A847544EF06C2D
S1132F80544B984763001C19A40001256D42524B11
S1132F90E550F06C514B9847280018B070BD4C4E6A
S1132FA058362B69019301230093534B534A402114
S1132FB0FF313000524DA8473000524B9847010072
S1132FC0002303934022029208AD019500933F3AF7
S1132FD030004D4EB0474D4928004D4B98470025D1
S1132FE00028D9D108ABBB22920038490C3149489A
S1132FF03C4DA8473C48A847C0E7354E5836EB68D7
S11330000293AB6801930094434B444A4021FF313F
S113301030003B4DA84730003A4B9847010005ABC0
S113302003934023029308AD0195002300930122EA
S11330303000354EB0473A492800354B98470025B3
S11330400028A9D008AA224958313648254DA84756
S11330502548A84792E71E4E5836EB680293AB68A2
S1133060019300942C4B304A4021FF313000244D11
S1133070A8473000234B9847010005AB0393402336
S1133080029308AD019500230093012230001E4EE7
S1133090B047234928001E4B98470025002800D13B
S11330A07AE708AA0A4958311E480E4DA8470E4827
S11330B0A84763E7084B2A681A60054BD86C074B8E
S11330C09847002446E7C046C98500006C9A000072
S11330D05C0800202F7D00005C060020317D00008C
S11330E0589F0000357D0000B49C0000949E0000B1
S11330F03C9F0000F49F0000849F0000D89D0000C6
S1133100757D000091890000ED1D0000BC9A00004F
S1133110EB890000F49A0000949F0000A09F000037
S1133120B49F0000C49F0000E09F000070B5A4B0ED
S113313006004022002114A82E4CA0474022002162
S113314004A8A04750232C4AD35C002B33D0300072
S11331502A4B98470500052837D80090284B294A60
S11331603F2114A8284CA04714A8284B98470100D5
S1133170002303934022029204AC019400933F3A4B
S113318014A8234EB04723492000234B984700241A
S1133190002825D0184EF06C204B98476800401941
S11331A08000012252421E4BC250F06C1D4B9847C6
S11331B0200024B070BD1C4920311C481C4CA04781
S11331C01C48A04701246442F2E7174A2032310028
S11331D01948174CA0471748A04701246442E7E761
S11331E004AA14A91548124CA0471248A047012468
S11331F06442CFE7C98500005C080020392600003E
S113320054A00000F89C0000757D00009189000026
S1133210ED1D0000BC9A0000EB8900002F7D00002A
S11332205C060020317D00006C9A0000949E000032
S1133230357D0000B49C000028A0000060A00000C0
S1133240F0B5CE46474680B5A7B0050005911700F6
S11332504022002116A8334CA0474022002106A892
S1133260A0475023304AD35C002B3CD028002F4B7E
S11332709847052841D8019700902D4B2D4A3F21AE
S113328016A82D4CA04700242C4B99462C4B3422D5
S1133290944663449846013416A8C84701000023A5
S11332A003934033029306AD01950097059B0122D9
S11332B016A8244EB04724492800244B98470028D8
S11332C026D13230224B9847332C27D0214B0193FF
S11332D043460093230006AA16A91F481F4DA8477A
S11332E01F48A847D7E7164934311E481B4CA0474E
S11332F01B48A047012040420BE0114A3432290008
S11333001948164CA0471648A0470120404200E047
S1133310002027B00CBC90469946F0BD01204042E5
S1133320F7E7C046C98500005C0800203926000084
S113333074A00000D89D0000757D000091890000F4
S11333406C9A0000ED1D0000BC9A0000EB8900009F
S1133350657D00005A030000C09A0000357D00001E
S1133360B49C0000949E000028A00000F0B5DE4646
S113337057464E464546E0B5CDB083460C009146CF
S1133380352200213EA8B04DA847C82200210CA830
S1133390A8472022002104A8A8475B46042B00D993
S11333A043E1002C00D143E1C622520000214846EB
S11333B0A54B98472000A54FB84702003EAE210018
S11333C03000A34DA8473000B8472E2333543000B3
S11333D0B847804656239C46A444634602936046FD
S11333E0B8470200404630180299A8473000B84751
S11333F006000298B84705002000B84776193B3606
S1133400301880B2C72800D915E10CAFC8220021BA
S113341038008D4B98478F4B3A0041CB41C238005E
S11334208A4DA84706003EA8A8470200B8193EA93D
S1133430874EB0473800A84738180A228649B04753
S11334403800A84780460298A8470200404638182A
S11334500299B0473800A84738180A227F49B04774
S11334603800A84780462000A84702004046381884
S11334702100B0473800A847381809227849B047D6
S11334803800A84738180D227649B0473800A847B5
S11334900390260077363000A847030004AA009260
S11334A0320003993800704EB0472000A847060048
S11334B05A4693006D4A9858A84736180236B6B251
S11334C03F2E00D9B9E04022002148465E4B984780
S11334D020005E4FB8470200210048465C4EB047CA
S11334E04846B8472E2349460B544846B8478046B9
S11334F05A4693005D4A9D582800B84702004B463F
S11335000393180040442900B047029D2800B8479F
S113351006002000B84736180236B6B23F2E00D94E
S11335208DE040220021039E0B36FF363000464BCF
S1133530984698472800454FB847020029003000B4
S1133540434DA8473000B847262333543000B847CA
S113355081462000B8470200300048442100A847B3
S113356041220021039E34004B34FF342000C04725
S11335702200202104A83E4B9847093CFF3C002C24
S11335805FD0C822002120002F4B98473EA82F4D22
S1133590A84702003EA920002D4B98472000A847C9
S11335A07C232354334D4C3B9A46AA44274B9946DB
S11335B0274B9B46C8462000C84706002B68029349
S11335C01800C84707006868C847F3190233181879
S11335D0C72836D8A0193A000299D8472000C04716
S11335E03D2323542000C04707006E683000C047C5
S11335F00200E0193100D8472000C0472C2323548F
S113360008355545D7D12000104B984701387C2305
S11336102354194A3C3B0399CA5200204DB03CBC88
S113362090469946A246AB46F0BD01204042F5E7DC
S113363001204042F2E71148F0E71148EEE7114853
S1133640ECE71148EAE7C046C9850000918900000B
S1133650B785000090A000009CA00000A8A0000076
S1133660B4A00000C0A00000C94A00004800002027
S1133670954B0000040000205B070000B0FBFFFF37
S1133680B4FBFFFFB2FBFFFFB3FBFFFF70B5137882
S11336900C2B00D070BD55680648074CA047E9883C
S11336A0EA680648A0472A69A9680548A04705486A
S11336B0A047EFE720A10000357D000034A1000001
S11336C044A10000709D000010B511780148024B20
S11336D0984710BD54A10000357D000070B590B02E
S11336E00500142200210BA8214CA0472022002110
S11336F003A8A0470BA81F4B984703A81E4B984745
S11337000BA81E4EB047040003A8B04724180B347E
S113371020001B4B9847061E1BD022000021144B8F
S1133720984703AB00930BAB164A21003000164CAC
S1133730A04700230093154B002231002800144CAD
S1133740A04700280BDB3000124B9847002010B034
S113375070BD1148114B984701204042F7E71048CB
S11337600E4B984730000B4B984701204042EEE740
S1133770C9850000F57C0000697C00009189000087
S11337801D7D000080A10000757D00008D360000C5
S1133790797A00005D7C00006CA10000357D00009A
S11337A08CA10000F0B595B00500142200210AA8F0
S11337B0254CA0472022002102A8A0470AA8234B99
S11337C0984702A8224B98470AA8224EB047040003
S11337D002A8B04724180B3420001F4B9847061E3C
S11337E023D022000021184FB84702AB00930AAB44
S11337F01A4A210030001A4CA0470FAC14220021B1
S11338002000B8470123A370164B23610B23A36048
S1133810220031002800144B984700280BDB3000AD
S1133820124B9847002015B0F0BD1148114B984732
S113383001204042F7E710480E4B984730000B4BED
S1133840984701204042EEE7C9850000F57C00005E
S1133850697C0000918900001D7D000080A10000AA
S1133860757D0000A0A10000057B00005D7C0000C8
S11338706CA10000357D0000ACA10000F0B53D4C0A
S1133880A54400239F933C4B984700284EDB3B48BC
S11338903B4B9847B82200210EA83A4CA0470EA8EB
S11338A0394B98478E206844384B9847AF2068447A
S11338B0374B9847C622520000213CA8A0473CAA97
S11338C00EA90020334B9847002832DB3422002114
S11338D001A82C4B984701AB40223CA98A5A1A8074
S11338E00291992252006A440392FD2252006A44D2
S11338F00492294A6A440592FA22D2000892274A7D
S113390009928022D2000B920A92254A0C92180046
S1133910244B98479F90002811D0234B98470024AC
S1133920002817DB214E224F224D1BE02248144B66
S1133930984701204042A1239B009D44F0BDC22230
S11339401E491F480E4CA0471E48A0471E491F4849
S1133950A047EEE79FA81E4B9847EAE7C8219F9827
S1133960A847013414212000B0470029F6D19F98BC
S1133970B847F3E77CFDFFFF250E0000D4A100004B
S1133980357D0000C9850000F57C0000697C0000DD
S1133990997C00006D3300003A02000060EA0000E8
S11339A0C9360000F5760000DD360000D98100003C
S11339B0A53700005D7A0000BCA1000010A1000042
S11339C0E4A10000F0A10000B49C0000ACB300002E
S11339D0097A000010B58468002C03D10069034CF7
S11339E0A04710BD01204042FBE7C046A51F0000D0
S11339F010B58468002C03D10069034CA04710BDA6
S1133A0001204042FBE7C046251F000010B504001A
S1133A108368002B09D10069431C09D0064B9847E1
S1133A2001235B422361002010BD01204042FBE7DB
S1133A3001204042F8E7C046011F000010B5040011
S1133A408368002B0BD100280CD081880068064BBA
S1133A5098472061013042424241504210BD01204A
S1133A604042FBE70120F9E74D1E000010B5041E9B
S1133A7018D0002919D0016082808360002B0FD0F8
S1133A8018000B4B9847E08000232361094B6361C6
S1133A90094BA361094BE361094B2362002010BD6C
S1133AA0C380F1E701204042F9E701204042F6E7F4
S1133AB091890000D5390000F13900000D3A000069
S1133AC03D3A0000024B1868421C1A607047C04619
S1133AD0F4090020014B58607047C046F4090020E7
S1133AE0F0B5B5B006008822002112A8484CA047C2
S1133AF0152200210CA8A0472122002103A8A047D9
S1133B00444B5B68002B56D00CA8434B984703AC3E
S1133B102000424B98474248424DA8474248A84794
S1133B2000940CAB414A872112A8414CA0470028BD
S1133B3049DD12A93F483B4CA0473B48A0473E4BB8
S1133B4018683E4B9847103005003D4B9847041EBB
S1133B5041D02A0000212E4B9847374B1F68394B20
S1133B6098470300384A00923A0029002000304D5B
S1133B70A847051E37DD210034482A4FB8472A4894
S1133B80B847244B5F68002F08D020002B4B984780
S1133B9000902300012212A93000B84720002C4BCA
S1133BA09847002D2ADB2B481E4CA0471E48A047EF
S1133BB0002035B0F0BD28481A4CA0471A48A04749
S1133BC001204042F5E72548164CA0471648A04777
S1133BD001204042EDE72248124CA0471248A0477A
S1133BE001204042E5E71F480E4DA8470E48A8476C
S1133BF02000174B984701204042DAE729001A4871
S1133C00084CA0470848A04701204042D1E7C046DD
S1133C10C9850000F4090020F57C0000697C0000DF
S1133C20BCA30000357D0000B49C0000CCA30000C0
S1133C30757D0000F0A300005C0000209189000065
S1133C401D7D0000C53A000084A3000030A40000DC
S1133C505D7C000064A40000A0A30000F4A40000A4
S1133C600CA4000018A4000048A4000030B5CDB096
S1133C700500882200212AA8424CA04740220021A6
S1133C801AA8A0472122002111A8A047152200212B
S1133C900BA8A0472122002102A8A0473A4B5B6849
S1133CA0002B47D00BA8394B984702A8384B9847AC
S1133CB011A8384B9847002844DD3748374CA047B3
S1133CC03748A04702AB00930BAB364A87212AA89A
S1133CD0354CA04700283DDD2AA934482F4CA04785
S1133CE02F48A047324B9847030011AA0092314A4B
S1133CF040211AA82C4CA047002833DD1AA92E48CD
S1133D00264CA0472648A0471AA82C4B9847009059
S1133D101D4B5C681AAB01222AA92800A047002881
S1133D2028DB010026481D4CA0471D48A047002061
S1133D304DB030BD2348194CA0471948A047012075
S1133D404042F5E72048154CA0471548A0470120FC
S1133D504042EDE71D48114CA0471148A0470120FF
S1133D604042E5E71A480D4CA0470D48A047012002
S1133D704042DDE71748094CA0470948A047012005
S1133D804042D5E7C9850000F4090020F57C000015
S1133D90697C0000C17C0000A0A40000357D000007
S1133DA0B49C0000C8A40000757D000008A50000B4
S1133DB0C53A000024A500007CA5000091890000FC
S1133DC0A8A50000A0A300007CA40000E4A40000B7
S1133DD04CA5000098A500000020704710B56C2287
S1133DE00021014B984710BDC985000000230360E2
S1133DF04360094A8260094AC260094A0261094A69
S1133E004261094A8261094AC261094A0262094A55
S1133E10426283667047C04667E6096A85AE67BB3F
S1133E2072F36E3C3AF54FA57F520E518C68059B98
S1133E30ABD9831F19CDE05BF0B5DE4657464E463D
S1133E404546E0B5D1B007900023C218926808AC8B
S1133E501A510433202BF8D10C0010AB9C4640318E
S1133E601D0023781B06627812041343E27813437F
S1133E70A2781202134308C504348C42F1D10F9B7B
S1133E801D000B9B18000E9B19000A9B9A460D9B64
S1133E90099E0C9A1400089A054FB846E3466746F3
S1133EA0039702958C4651464546009502E0C0466C
S1133EB0DCA6000027000625EF41B846270005359B
S1133EC0EF41B94647464D466F40B846270019258D
S1133ED0EF41B94647464D466F40B8465D46009FA0
S1133EE03F682D68AA465744B946C84467465F40B0
S1133EF0274065466F40B946C844029D454428188A
S1133F00019017000220C741B84617000B30C74183
S1133F10B946474648464740B84617001620C741A9
S1133F20B946474648464740B846170037430F400E
S1133F30B94637001740BA464F4650460743B9467C
S1133F40C84445445846009F7F68406881464F44B2
S1133F50B846C44427005F40019807405F40B84614
S1133F60C44407000620C741B846019F0530C74135
S1133F70B946474648464740B846019F1920C741BD
S1133F80B946474648464740B846E04441442F00B6
S1133F900220C741BC462F000B30C741B9466746D3
S1133FA048464740BC462F001620C741B9466746DD
S1133FB048464740BC462F0017433740B9461700D0
S1133FC02F40BA464F4650460743B946CC44C444F2
S1133FD05846009FBF68806881464F44B84698445D
S1133FE0019B63400B40634043440F000620C741DC
S1133FF0B8460F000530C741B946474648464740D2
S1134000B8460F001920C741B946474648464740BD
S1134010B84643449E1967460220C741B8466746DE
S11340200B30C741B946474648464740B8466746FD
S11340301620C741B946474648464740B8466746F2
S11340402F431740B94667462F40BA464F4650465D
S11340500743B946C84443445846009FFF68C068B4
S113406081464F44B846A044019804004C40344073
S11340704440444437000620C741B8463700053061
S1134080C741B946474648464740B8463700192015
S1134090C741B946474648464740B8464444A21833
S11340A01F000220C741B8461F000B30C741B94664
S11340B0474648464740B8461F001620C741B94600
S11340C0474648464740B84667461F432F40B946CF
S11340D067461F40BA464F4650460743B946C84450
S11340E044445846009F3F69006981464F44B8469E
S11340F001988146C844080070401040484040443C
S1134100824617000620C741B84617000530C7414C
S1134110B946474648464740B84617001920C741A4
S1134120B946474648464740B846504640442D188D
S1134130029527000225EF41B84627000B35EF41D1
S1134140B94647464D466F40B84627001625EF410D
S1134150B94647464D466F40B8461F00274365465B
S11341602F40B94627001F40BA464F4655462F43B5
S1134170B946C84440445D46009F7F696D69A946BD
S11341804F44B846884431005140029D2940714053
S113419041442F000625EF41B846029F0535EF4103
S11341A0B94647464D466F40B846029F1925EF4130
S11341B0B94647464D466F40B84641448C440700D3
S11341C00225EF41B84607000B35EF41B946474693
S11341D04D466F40B84607001625EF41B94647469D
S11341E04D466F40B846270007431F40B9460700B5
S11341F02740BA464F4655462F43B946C844414422
S11342005D46009FBF69AD69A9464F44B846B044B6
S11342101600029D6E4065462E4056404644674651
S11342200625EF41B84667460535EF41B94647468E
S11342304D466F40B84667461925EF41B946474693
S11342404D466F40B84646449B190F000225EF4186
S1134250B8460F000B35EF41B94647464D466F400F
S1134260B8460F001625EF41B94647464D466F4004
S1134270B84607000F432740B9460F000740BA4627
S11342804F4655462F43B946C84446445D46009FB1
S1134290FF69ED69A9464F44B84690446246029DC1
S11342A06A401A406A4042441F000625EF41B8465E
S11342B01F000535EF41B94647464D466F40B846A5
S11342C01F001925EF41B94647464D466F40B84691
S11342D04244A41837000225EF41B84637000B3595
S11342E0EF41B94647464D466F40B846370016255C
S11342F0EF41B94647464D466F40B8460F00374335
S11343000740B94637000F40BA464F4655462F433B
S1134310B946C8444244009F203700972025A84648
S1134320C3440A4DBD4200D0C4E565460495039DCF
S11343308A460700009988462800A1461D00934636
S1134340039653460193BA4602E0C0461CA70000F8
S1134350826B1123DA41836B1324E3415A40836B4C
S11343609B0A5340426A0668B44662449B184468F8
S11343700722D44142681226F24162404468E408AC
S113438062409B181E004A460623DA414B460B2422
S1134390E34153404A460E34E2415340049C220018
S11343A06A404F463A4062409B1847463F68BC46C5
S11343B06344B446634405960664029FBC46634462
S11343C09A4451465C460227FC415F460D22D74180
S11343D03A0062405C461627FC4162405C46039EFC
S11343E03443019F3C405F4637403C431419A44684
S11343F09C44C36B1127FB411C00C36B0237FB4178
S11344006340C76BBC0A5C404368876ABA4653443E
S1134410E41883680727FB4187681222D7413A00D2
S11344205A408368DB085A40A4184B466B400E0080
S11344300B406B404146049A49688A46524412191B
S11344409A18446433000621CB4137000531CF412B
S11344505F40029633000E31CB417B409B1801999B
S1134460CA18019262460221CA4167460B31CF4104
S1134470574062460931CA4157405A4661460A4389
S113448003990A405946664631400A43BF18FF184B
S1134490059B19001122D1411E000232D64132007F
S11344A04A40990A51408268C66AB2465244891801
S11344B0C2680726F241C3680B36F3415340C26811
S11344C0D2085340CA181600424692689246554490
S11344D0B24655444A46029B5A4001990A404B460B
S11344E05A40AA18049686640D000623DD412B0069
S11344F00D000B26F5415D400B001921CB416B40AB
S11345009B18039AD6183A001739CA413D000B315B
S1134510CD4155403A000931CA41554062463A43BB
S113452059460A40614639400A43AD18ED18220045
S11345301121CA4121001323D9410B005340A40A7D
S11345406340C268016B8A4652449B180269072182
S1134550CA41140002690B31CA4162400169CC08A6
S1134560624099180391029C220001994A4032400A
S113457062404346DB684B441C00039B99464C4411
S11345801219C36433000621CB4199463300053127
S1134590CB411C004B465C4033000E31CB415C40A8
S11345A0A218D94691442B001739CB419A462B00C7
S11345B00B31CB411C0053465C402B000931CB41ED
S11345C05C403B002B4361460B409A462B003B402A
S11345D09B46534659460B439A465444A2180092AC
S11345E0049C23001122D3419A4622001323DA416A
S11345F053465A40A10A4A4003699B46436B9A4674
S1134600D3445946521843690721CB419A4643691A
S11346100B31CB411900534659404369DB085940DB
S11346205418220043461B69E118029CA2468A449E
S1134630019C210071404B46194061405144049251
S113464002654B460622D3419B464B460532D34175
S11346509A465B46524653409A464B461922D341EA
S11346609B4653465A4653409A4651448C446346AB
S11346700293009B0222D3419A46009B0B32D34102
S11346809C465346624653409C46009B1622D341A7
S11346909A466346524653409C462B00009A134365
S11346A03B409A4613002B409B4653465A461343BD
S11346B09A46E2448A44039B19001122D1418C4654
S11346C019000232D141624651409B0A4B40826B31
S11346D011004269944661445B1881690722D14103
S11346E08C4681690B32D141624651408269D208BD
S11346F051405B18424652699918A4468C44494675
S11347007140029C2140714061440693436523003B
S11347100622D441A3461C000532D4415B466340C3
S11347209C46029C1923DC41634663409C466144D9
S11347307F183B0057460222D741BC4657460B32EE
S1134740D7416246574054461622D44167405446E6
S1134750009A14432C40A44654461440A34664468D
S11347605A461443A446674479180191049C2700CF
S11347701121CF41BC4627000231CF4161464F4051
S1134780A20A7A40C16B0F0081698C466744D21932
S1134790C7690721CF41BC46C7690B31CF41614688
S11347A04F40C169C9084F40D21941468969571819
S11347B0BE194F46029C67401F4049464F40F719B7
S11347C082651A000621CA411E000531CE415640B9
S11347D004931A001923DA417240D219AD18019ECC
S11347E033000939CB411F0033000B31CB411E008C
S11347F07E40019B0931CB415E40534601990B43F6
S11348001F00009B1F4053460B401F43F619B71867
S11348100397026A069E33001121CB419C46330064
S11348200231CB411F0063465F40B30A7B40059FC2
S1134830C1698C466744DB1917000721CF41BC4688
S113484017000B31CF4161464F40D2085740DB1966
S11348504146C9695F184F442200049E72402A40B1
S11348606240BA18C3652F000623DF412B000B21D9
S1134870CB417B402F000E31CF417B409A18009BE7
S113488099469144039F3B001739CB413C000B31BF
S1134890CC4163403C000931CC416340019E34006B
S11348A03C4351460C4037403C431B199B469344C0
S11348B020239C46E044203040AB984200D047E59A
S11348C04B465A46039E51460198824602980F90E1
S11348D00C93049B0E930D950892099653460A93E4
S11348E00B9107980200083208A9283008C91468F7
S11348F0A446634408C28242F8D151B03CBC9046FD
S11349009946A246AB46F0BDF0B5D6464F4680B5B3
S113491083B006000191171E2BD003683F20184076
S11349208246D31833609A4202D9736801337360A4
S11349305346002B03D04024E41AA7421ED23F2F33
S113494035D93D00019C1E4B994621003000C847D3
S11349504034403D3F2DF8D83B00403B3F22934339
S1134960403301998C469C44634601931740002FC1
S11349701DD103B00CBC91469A46F0BD35002835D4
S1134980E818220001990F4B9847290030000C4B7E
S11349909847019B9C46A444634601933F1B3F2FC9
S11349A002D900239A46CCE700239A46DFE7300079
S11349B0283050443A000199024B9847D9E7C04641
S11349C0393E0000B785000070B582B004000D00C8
S11349D000686368DB00420F1343C1001A0E6E4681
S11349E032701A0C72701A0AB270F3700B0E3371B3
S11349F00B0C73710B0AB371F1713F220240372A19
S1134A005AD838239A1A2E4920002E4EB04708222D
S1134A1069462000B047E37A2B7063896B70A36802
S1134A201B0AAB70237AEB70E37B2B71E3896B7108
S1134A30E3681B0AAB71237BEB71E37C2B72638A03
S1134A406B7223691B0AAB72237CEB72E37D2B73BD
S1134A50E38A6B7363691B0AAB73237DEB73E37E99
S1134A602B74638B6B74A3691B0AAB74237EEB7486
S1134A70E37F2B75E38B6B75E3691B0AAB75237FAF
S1134A80EB75236A1B0E2B76638C6B76236A1B0AE9
S1134A90AB762023E3181B78EB76A36E002B09D1A9
S1134AA0636A1B0E2B77E38C6B77636A1B0AAB7705
S1134AB0636AEB7702B070BD78239A1AA3E7C04605
S1134AC0DCA7000009490000F0B5C64600B5BEB039
S1134AD00500019116001F00002806D0002A04D00A
S1134AE0449B002B01D0402F03D93EB004BC904618
S1134AF0F0BD4022002113A8204CA04740220021F1
S1134B0003A8A0473A00310013A81D4CA0473A005F
S1134B10310003A8A047002313A8362703A95C2665
S1134B201A5C7A401A545A5C72405A540133402B2E
S1134B30F6D123A8134B9846984723A8124FB84799
S1134B40402213A923A8114EB047019A290023A893
S1134B50B047449923A80E4CA04723A8C04723A8D4
S1134B60B847402203A923A8B0472022449923A888
S1134B70B047449923A8A047B7E7C046C9850000B9
S1134B80B7850000DD3D0000ED3D0000094900004F
S1134B90C949000030B500290FDD03004118074D55
S1134BA00F201C7824092C5D14701C7804402C5DA3
S1134BB05470013302328B42F3D130BD1CA8000083
S1134BC0F0B5DE4657464E464546E0B585B0041E70
S1134BD0029116D0324B1860029F002F5AD0200049
S1134BE0304DA84706003800A847864254D92C4BBC
S1134BF05C60012303932A4B99469B469A46984648
S1134C0011E0274B1C68002CE6D120003BE0BE429B
S1134C1021D05B465B689C4228D1019B9C4664443E
S1134C2053461C605C604B461C682000A847060085
S1134C300298A84701900700864222D3019A02995C
S1134C402000194B98470028E1D0013443461C60EA
S1134C5000230393E7E7320000212000134B984719
S1134C60039B002B1AD10E4B58680CE03A0000212C
S1134C7020000E4B984702980A4B98472418084B7B
S1134C801C60074B586805B03CBC90469946A24648
S1134C90AB46F0BD0020F6E70020F4E70020F2E781
S1134CA0FC0900209189000099850000C985000055
S1134CB010B5041E02D0024B9847206010BDC046B8
S1134CC0957D000010B5041E04D0034B984723685B
S1134CD0C01A10BD0020FCE7957D000010B5041E2D
S1134CE008D0054B98472368C31A0020034A9A4208
S1134CF0404110BD0120FCE7957D0000FEFFFF7FD1
S1134D0010B5041E0BD0074B98470023002801D090
S1134D10180010BD044B984723681B1AF8E70023BA
S1134D20F6E7C046DD4C0000957D0000002801D068
S1134D30002303607047000070B505000C000028D4
S1134D4003D0024B984724182C6070BD957D000059
S1134D5070B500280BD00368002B0BD0074C01253D
S1134D6025604068984700232360002070BD01201F
S1134D704042FBE701204042F8E7C046040A002015
S1134D8030B5002837D0002937D08B684D685D19BD
S1134D900278002A3FD0AB422BD20130691E08E0D2
S1134DA02F2A0FD101330278002A34D09D421ED914
S1134DB001301C782F2CF3D02B2A09D0232A14D0AD
S1134DC09442EFD000209D4228D15042504125E02A
S1134DD05C1CA5421AD95A782F2A10D001338B4271
S1134DE0E0D05A782F2AF9D1DCE76B1EDAE70020ED
S1134DF014E0002012E0002011E000200FE002780F
S1134E00002A01D02300D3E7002007E00133027811
S1134E100020002A02D1EB1A58425841C0B230BDDA
S1134E2070B504000D000068034B98473423E55423
S1134E302068024B984770BD2F7D0000317D000033
S1134E4070B504000068044B98473423E55C20687F
S1134E50024B9847280070BD2F7D0000317D000073
S1134E6070B5051E0FD00068084B98476C68084B56
S1134E709C4206D001346C602868064B9847200099
S1134E8070BD0124F7E701204042F9E72F7D0000BF
S1134E90FFFF0000317D0000F0B5D6464F46464680
S1134EA0C0B582B089461500019300282CD0002992
S1134EB02DD0002B2ED00024002D1ADD174B9A463E
S1134EC0174B984607000AE0B86A4A4611198669E2
S1134ED02A00B04700280CDB2418A54209DD0198FC
S1134EE0D047002805D10198C047031EECD10133F7
S1134EF0EAE70020A54205D102B01CBC90469946C1
S1134F00A246F0BD0E38F7E701204042F4E7012045
S1134F104042F1E701204042EEE7C046DD4C00008C
S1134F20014D000070B504000D00002807D01D4B92
S1134F309847061E26DD23002018082112E01A488F
S1134F401A4CA0471A48A0470120404217E01A789B
S1134F508A43232A1BD01A78203A5E2A14D80133B4
S1134F6098420DD0012DF2D01A788A43232AF2D127
S1134F7010480E4CA0470E48A0470120404270BD87
S1134F800020FCE70020FAE701204042F7E7012E69
S1134F90E5D00948054CA0470548A04701204042F8
S1134FA0EDE7C04691890000D8A80000357D0000D7
S1134FB0B49C000008A90000E8A80000F0B5A3B064
S1134FC0041E009152D003782F2B53D12B4B9847BA
S1134FD0802825D88022002102A8294B98477F22C7
S1134FE0210002A8274B9847274902A8274B984736
S1134FF00099274B98470190041E1AD1234F244D42
S113500021490020B847061E24D0012C1AD000994B
S1135010A847002821D13478233C63425C41EFE760
S11350201C481D4CA0471D48A04701235B42019327
S113503010E01B48184CA0471848A04701235B42C6
S1135040019307E01748144CA0471448A0470123D4
S11350505B420193019823B0F0BD11480E4CA04768
S11350600E48A04701235B420193F3E701235B420F
S11350700193EFE701235B420193EBE79189000081
S1135080C9850000C189000044A90000C14B00008B
S1135090254F000028A90000357D0000B49C0000C5
S11350A048A9000064A90000F0B5DE4657464E4604
S11350B04546E0B585B005000C00019193460028F3
S11350C000D111E1002900D111E1002A00D111E140
S11350D0A823C0588D4B984720008D4B9847031E3A
S11350E000D10133A86A44690122296AA047041E39
S11350F034D001283AD10198854B9847002800D133
S113510001300123002800D003000093270000266B
S11351107F239A46A86A43699846009B012202A904
S1135120C047012800D0EAE002AB1B7852461A407F
S11351307A43B618FF015BB2002B24DA0134052C44
S1135140E8D10124644221007248734EB047734889
S1135150B047A823E858724B984746E000235A46C4
S11351601360A833E8586E4B98473EE001006D4841
S1135170694CA0476948A047A823E858684B98475A
S11351800124644231E0002CDDDB2B6A581C310021
S1135190654B9847441CA3199846002E00DCB1E0E7
S11351A069698B4229D80198594B9847002800D146
S11351B00130AF6A2B6A19197C6903003200380088
S11351C0A047B04200D083E02B6A1B781B095A46E3
S11351D013606B69984503D200232A6A41465354ED
S11351E0A823E8584E4B98470024200005B03CBC47
S11351F090469946A246AB46F0BD32004B48464B1A
S1135200984698474548C0476B691B1B9846994682
S113521001983F4B9847031E00D10133A86A2A6ABC
S1135220111944694246A04781452AD14346F61ADA
S1135230701C3F4B9847041E2FD00198344B98475D
S1135240031E00D10133A86A476932002100B84720
S113525086422ED12000374B9847A823E858304B7C
S11352609847B023EB58002B47D00D2302AA1370A4
S1135270314B03932800B0302900304B9847002469
S1135280B3E72F48244CA0472448A047A823E85854
S1135290234B984701246442A7E72A481E4CA047A1
S11352A01E48A047A823E8581D4B98470124644290
S11352B09BE72348184EB0471848B04720001D4BC1
S11352C09847A823E858164B9847012464428CE772
S11352D01B48114CA0471148A047A823E858104B7D
S11352E098470124644280E7012464427DE7012455
S11352F064427AE70124644277E7002475E70E24C8
S1135300644220E70198024B98475DE72F7D000037
S1135310014D000098A90000357D0000B49C0000F8
S1135320317D000080A90000F96F0000B4A90000DD
S11353301D7D00005D7C00002CAA0000514D000082
S1135340FCA900000CAA000030B583B0041E3AD0BA
S1135350A423C0581D4B9847220040322169E069BC
S11353601B4B9847051E15DD01A81A4B9847A168E9
S113537001A8194B984701AB2A00E1692000174D99
S1135380A847051E13D1A423E058154B98472800BD
S113539003B030BD01001348134DA8471348A84774
S11353A0A423E0580E4B98471E256D42EFE71048A2
S11353B00D4DA8470D48A847A423E058084B98472B
S11353C00E256D42E3E701256D42E0E72F7D0000E5
S11353D0FD6C00002D4D0000394D0000994E000079
S11353E0317D00004CAA0000357D0000B49C000013
S11353F078AA0000F0B5CE46474680B58DB00400CB
S11354001500002309930A93002800D1BFE0002966
S113541000D1BFE0002A00D1BFE008AE08910BA87C
S11354205F4B9847A1680BA85E4B9847A023E058B0
S11354305D4FB847A423E058B847AB78AA680692F2
S11354402A69059202AA83CE83C22A8801922A7904
S1135450009200222169E069544EB047804600283A
S113546036DDAB78002B67D02B889946260098361A
S11354707368B3423ED0002101315B689E42FBD188
S11354804346002B38DB2369434535D3132947DCD6
S113549040461830464B9847071E47D000230371F7
S11354A04B46C38043468360424B984738001830CC
S11354B0F8604246E169404B98473B0010337B61FA
S11354C03B619822A1587E6139614B60A35034E05E
S11354D0AB68226901003948394DA8473948A847C3
S11354E0A423E058384DA847A023E058A847152620
S11354F0764231E00021C3E73448314DA8473148B2
S1135500A84733482E4DA8472E48A847A423E0585F
S11355102D4DA847A023E058A8472A2676421BE031
S11355202C48274DA8472748A847EAE72A48244D8E
S1135530A8472448A847E4E700270BAB4246E169A3
S11355402000264EB047061E0CD1A423E0581E4D61
S1135550A847A023E058A84730000DB00CBC9046E3
S11355609946F0BDAB78002B09D1A423E058164D21
S1135570A847A023E058A8470E267642ECE73A69EC
S11355807B6953601A603800154B9847EDE7012694
S11355907642E1E701267642DEE701267642DBE742
S11355A02D4D0000394D00002F7D00006572000074
S11355B01D7D0000B14C0000B785000094AA0000D6
S11355C0357D0000B49C0000317D0000DCAA0000A1
S11355D054AB0000F8AA000030AB0000994E000064
S11355E05D7C0000F0B5DE4657464E464546E0B5C4
S11355F099B00500B820B84B9847041E00D11EE1AD
S11356005822B64902A8B64B9847002D00D106E1AE
S11356106B6A002B00D102E1AB6A002B00D1FEE0E3
S1135620B82200212000AF4B9847AF4B9847206029
S1135630002800D1F3E0AC4B9847A023E0500028A9
S113564000D1AFE0A84B9847AC23E050002800D12C
S1135650A8E0A54B9847A423E050002800D1A1E07E
S1135660A14B9847A823E050002800D19AE02E6A65
S1135670AB689B46EB6899462B6998462B7E9A4605
S1135680EB691900F539FF39984A914200D8E2E0F4
S1135690FA23DB00A360686A8F4B9847E061002817
S11356A000D17FE06B6A2361A86A8B4B9847206224
S11356B0002877D0FA21890030008D4B984701905B
S11356C083B20093AB6A636100262676B023EA6A4C
S11356D0E25004332A6BE250FA239B00E363230075
S11356E098335B609822A35020004030943A02A97A
S11356F07B4B9847666448230422E2545B46059337
S113570023004C3305AA83CA83C35A235246E25466
S11357100133E6544B4612932300803312AA83CA02
S113572083C34346159323008C3315AA83CA83C3CA
S113573020005C30042209A9694B9847266623009F
S113574064330BAA83CA83C30EAA83CA83C37D238B
S1135750E654013BE654009B1D2B00D87DE0009BE2
S1135760B42B00D98FE058236A461288E2522000F5
S11357702C30604EB04720003830B0472420564BC0
S11357809847A062002800D193E024220021554BC1
S113579098476B692A886968A06A574DA84700280A
S11357A000D18CE000212000544B9847E069002888
S11357B003D0534B98470023E361206A002803D0A9
S11357C04F4B984700232362A06A002803D04C4B18
S11357D098470023A362A023E058002804D0494B33
S11357E098470022A023E250A423E058002804D0C4
S11357F0444B98470022A423E250A823E0580028F1
S113580004D0404B98470022A823E250AC23E05830
S1135810002804D03B4B98470022AC23E2503A487E
S11358203A4DA8473A48A8472000354B98470020EE
S113583019B03CBC90469946A246AB46F0BD3548EB
S1135840324CA0473248A047002D43D028002C4BAF
S113585098470020ECE7A3601DE7019B1B041B0C89
S1135860FA21890059432C4A2C48284EB047284F26
S11358703800B04728492A48B0473800B0471E22AC
S11358805823E25273E7019B1904090CFA239B0085
S11358905943244A24481D4EB0471D4F3800B04791
S11358A020491F48B0473800B047B4225823E25279
S11358B05DE71E48154DA8471548A84772E71C48E0
S11358C0124DA8471248A847012120000B4B9847C6
S11358D02000ADE70020ABE71D7D000080A800009C
S11358E0B7850000C9850000297D000094110000DF
S11358F0F97E00002D4D00006D3A0000214E00009D
S11359005D7C00002D7D00006CAC0000357D000046
S1135910B49C000080AB00003075000094AB000024
S1135920D0AB000020BF0200FCAB000038AC00008C
S113593058AC0000F0B5CE46474680B585B0051E8C
S113594000D1CFE0806A036A9847041E14D0A86A85
S1135950C36998477D487E4DA8477E48A8477E4B3B
S11359609C4202D01C267642B6E07C48784CA04784
S11359707848A0477A4EAFE001239946794B984680
S11359802800C047061E34D10023029303A8764B97
S11359909847A96803A8754B98470B24744F02AA2B
S11359A003A92800B847061E2DD1013CE4B2002CFF
S11359B037D0029B022BF2D1A633E8586D4B98479F
S11359C06B46991DFF230B706B46D81D0023037093
S11359D06B692A6A684CA04701284FD16B469B79B2
S11359E0052B00D9AFE06B469B799B00634AD358E3
S11359F09F46A86AC369984731006148544CA04740
S1135A005448A04768E001005E48514CA047514803
S1135A10A047A8242859574B984728595A4B9847C8
S1135A200BE05A484A4CA0474A48A047A8242859A2
S1135A30504B98472859544B98470E2464422100F0
S1135A405348434CA047434E3000A047FA27FF0079
S1135A503B00082249464F48A0473000A047380081
S1135A604D4B9847A86AC369984701239C46E14473
S1135A704B46092B84D1212676422DE04748344CED
S1135A80A0473448A0471D246442A823E8583E4B4D
S1135A909847210042482E4EB0472E48B047CEE7E3
S1135AA02226764239E0A823E858374B98474B46DC
S1135AB0092B1AD0022128003A4B98475823EB5A55
S1135AC0FA218900594328002C30284B984736483E
S1135AD01F4CA0471F48A047300005B00CBC90469F
S1135AE09946F0BD02267642F6E721267642F3E790
S1135AF02626764211E0A823E858234B984725260A
S1135B00764231002648124CA0471248A0470EE0C6
S1135B102426764201E023267642A823E8581A4B2D
S1135B20984731001E480A4CA0470A48A047310054
S1135B301E48074CA0470748A047A86AC36998476E
S1135B4021267642C8E7272464429EE780AC000001
S1135B50357D0000B49C000009FCFFFFA0AC0000F0
S1135B60CBFEFFFF495300002D4D0000394D0000CE
S1135B70A95000002F7D0000456E000030A80000F1
S1135B80B8AC0000DCAC0000317D0000FCAC0000CF
S1135B905CAD000080AD0000657D000014AD000028
S1135BA0C8AD0000214E0000B0AD00002CAD0000D7
S1135BB0F0B5DE4657464E464546E0B599B0050079
S1135BC017A8D74B9847E96817A8D64B9847AC2332
S1135BD09946D54F1EE34146D448D54CA047D548F5
S1135BE0A04717E30100D448D14CA047D148A047AF
S1135BF01B235B429846F8E2A8242859CF4B9847C8
S1135C002859CF4B984703212800CE4B984741464B
S1135C10CD48C74CA047C748A0470E235B429846CF
S1135C20E3E2A8242859C54B98472859C44B984700
S1135C3008E0C648BE4CA047BE48A047A823E85881
S1135C40BF4B9847A023E858BC4B98479C23EB587C
S1135C501E00103E7469103C98229246AA449A454C
S1135C6000D1BEE22B0055469A467BE2B848B04CC0
S1135C70A047B048A0470CA900230B700DA80370DF
S1135C806B6900932B6A0FAAB24CA047012800D07D
S1135C9000E30FAB1C88A023E858A84B98479C232B
S1135CA0EA581300103B2900983191420BD001208F
S1135CB004E05A691300103B914204D0DA88A242EE
S1135CC0F7D11871F5E7A023E8589D4B9847B02306
S1135CD0EB58002BB2D012AA092313700FAB1B8808
